{
    "_format": "hh-sol-artifact-1",
    "contractName": "Record",
    "sourceName": "contracts/Record.sol",
    "abi": [
        {
            "inputs": [],
            "stateMutability": "nonpayable",
            "type": "constructor"
        },
        {
            "inputs": [
                {
                    "internalType": "address",
                    "name": "",
                    "type": "address"
                }
            ],
            "name": "AppointmentPerPatient",
            "outputs": [
                {
                    "internalType": "uint256",
                    "name": "",
                    "type": "uint256"
                }
            ],
            "stateMutability": "view",
            "type": "function"
        },
        {
            "inputs": [
                {
                    "internalType": "address",
                    "name": "_address",
                    "type": "address"
                }
            ],
            "name": "RevokePermission",
            "outputs": [
                {
                    "internalType": "bool",
                    "name": "success",
                    "type": "bool"
                }
            ],
            "stateMutability": "nonpayable",
            "type": "function"
        },
        {
            "inputs": [],
            "name": "appointmentCount",
            "outputs": [
                {
                    "internalType": "uint256",
                    "name": "",
                    "type": "uint256"
                }
            ],
            "stateMutability": "view",
            "type": "function"
        },
        {
            "inputs": [
                {
                    "internalType": "uint256",
                    "name": "",
                    "type": "uint256"
                }
            ],
            "name": "appointmentList",
            "outputs": [
                {
                    "internalType": "address",
                    "name": "",
                    "type": "address"
                }
            ],
            "stateMutability": "view",
            "type": "function"
        },
        {
            "inputs": [
                {
                    "internalType": "address",
                    "name": "",
                    "type": "address"
                }
            ],
            "name": "appointments",
            "outputs": [
                {
                    "internalType": "address",
                    "name": "doctoraddr",
                    "type": "address"
                },
                {
                    "internalType": "address",
                    "name": "patientaddr",
                    "type": "address"
                },
                {
                    "internalType": "string",
                    "name": "date",
                    "type": "string"
                },
                {
                    "internalType": "string",
                    "name": "time",
                    "type": "string"
                },
                {
                    "internalType": "string",
                    "name": "prescription",
                    "type": "string"
                },
                {
                    "internalType": "string",
                    "name": "description",
                    "type": "string"
                },
                {
                    "internalType": "string",
                    "name": "diagnosis",
                    "type": "string"
                },
                {
                    "internalType": "string",
                    "name": "status",
                    "type": "string"
                },
                {
                    "internalType": "uint256",
                    "name": "creationDate",
                    "type": "uint256"
                }
            ],
            "stateMutability": "view",
            "type": "function"
        },
        {
            "inputs": [],
            "name": "doctorCount",
            "outputs": [
                {
                    "internalType": "uint256",
                    "name": "",
                    "type": "uint256"
                }
            ],
            "stateMutability": "view",
            "type": "function"
        },
        {
            "inputs": [
                {
                    "internalType": "uint256",
                    "name": "",
                    "type": "uint256"
                }
            ],
            "name": "doctorList",
            "outputs": [
                {
                    "internalType": "address",
                    "name": "",
                    "type": "address"
                }
            ],
            "stateMutability": "view",
            "type": "function"
        },
        {
            "inputs": [
                {
                    "internalType": "address",
                    "name": "",
                    "type": "address"
                }
            ],
            "name": "doctors",
            "outputs": [
                {
                    "internalType": "string",
                    "name": "ic",
                    "type": "string"
                },
                {
                    "internalType": "string",
                    "name": "name",
                    "type": "string"
                },
                {
                    "internalType": "string",
                    "name": "phone",
                    "type": "string"
                },
                {
                    "internalType": "string",
                    "name": "gender",
                    "type": "string"
                },
                {
                    "internalType": "string",
                    "name": "dob",
                    "type": "string"
                },
                {
                    "internalType": "string",
                    "name": "qualification",
                    "type": "string"
                },
                {
                    "internalType": "string",
                    "name": "major",
                    "type": "string"
                },
                {
                    "internalType": "string",
                    "name": "avatar",
                    "type": "string"
                },
                {
                    "internalType": "address",
                    "name": "addr",
                    "type": "address"
                },
                {
                    "internalType": "uint256",
                    "name": "date",
                    "type": "uint256"
                }
            ],
            "stateMutability": "view",
            "type": "function"
        },
        {
            "inputs": [
                {
                    "internalType": "string",
                    "name": "_ic",
                    "type": "string"
                },
                {
                    "internalType": "string",
                    "name": "_name",
                    "type": "string"
                },
                {
                    "internalType": "string",
                    "name": "_gender",
                    "type": "string"
                },
                {
                    "internalType": "string",
                    "name": "_phone",
                    "type": "string"
                },
                {
                    "internalType": "string",
                    "name": "_dob",
                    "type": "string"
                },
                {
                    "internalType": "string",
                    "name": "_addressHome",
                    "type": "string"
                },
                {
                    "internalType": "string",
                    "name": "_bloodgroup",
                    "type": "string"
                },
                {
                    "internalType": "string",
                    "name": "_medication",
                    "type": "string"
                },
                {
                    "internalType": "string",
                    "name": "_avatar",
                    "type": "string"
                }
            ],
            "name": "editDetails",
            "outputs": [],
            "stateMutability": "nonpayable",
            "type": "function"
        },
        {
            "inputs": [
                {
                    "internalType": "string",
                    "name": "_ic",
                    "type": "string"
                },
                {
                    "internalType": "string",
                    "name": "_name",
                    "type": "string"
                },
                {
                    "internalType": "string",
                    "name": "_phone",
                    "type": "string"
                },
                {
                    "internalType": "string",
                    "name": "_gender",
                    "type": "string"
                },
                {
                    "internalType": "string",
                    "name": "_dob",
                    "type": "string"
                },
                {
                    "internalType": "string",
                    "name": "_qualification",
                    "type": "string"
                },
                {
                    "internalType": "string",
                    "name": "_major",
                    "type": "string"
                },
                {
                    "internalType": "string",
                    "name": "_avatar",
                    "type": "string"
                }
            ],
            "name": "editDoctor",
            "outputs": [],
            "stateMutability": "nonpayable",
            "type": "function"
        },
        {
            "inputs": [],
            "name": "getAppointmentCount",
            "outputs": [
                {
                    "internalType": "uint256",
                    "name": "",
                    "type": "uint256"
                }
            ],
            "stateMutability": "view",
            "type": "function"
        },
        {
            "inputs": [
                {
                    "internalType": "address",
                    "name": "_address",
                    "type": "address"
                }
            ],
            "name": "getAppointmentPerPatient",
            "outputs": [
                {
                    "internalType": "uint256",
                    "name": "",
                    "type": "uint256"
                }
            ],
            "stateMutability": "view",
            "type": "function"
        },
        {
            "inputs": [],
            "name": "getAppointments",
            "outputs": [
                {
                    "internalType": "address[]",
                    "name": "",
                    "type": "address[]"
                }
            ],
            "stateMutability": "view",
            "type": "function"
        },
        {
            "inputs": [],
            "name": "getDoctorCount",
            "outputs": [
                {
                    "internalType": "uint256",
                    "name": "",
                    "type": "uint256"
                }
            ],
            "stateMutability": "view",
            "type": "function"
        },
        {
            "inputs": [],
            "name": "getDoctors",
            "outputs": [
                {
                    "internalType": "address[]",
                    "name": "",
                    "type": "address[]"
                }
            ],
            "stateMutability": "view",
            "type": "function"
        },
        {
            "inputs": [],
            "name": "getPatientCount",
            "outputs": [
                {
                    "internalType": "uint256",
                    "name": "",
                    "type": "uint256"
                }
            ],
            "stateMutability": "view",
            "type": "function"
        },
        {
            "inputs": [],
            "name": "getPatients",
            "outputs": [
                {
                    "internalType": "address[]",
                    "name": "",
                    "type": "address[]"
                }
            ],
            "stateMutability": "view",
            "type": "function"
        },
        {
            "inputs": [],
            "name": "getPermissionGrantedCount",
            "outputs": [
                {
                    "internalType": "uint256",
                    "name": "",
                    "type": "uint256"
                }
            ],
            "stateMutability": "view",
            "type": "function"
        },
        {
            "inputs": [
                {
                    "internalType": "address",
                    "name": "_address",
                    "type": "address"
                }
            ],
            "name": "givePermission",
            "outputs": [
                {
                    "internalType": "bool",
                    "name": "success",
                    "type": "bool"
                }
            ],
            "stateMutability": "nonpayable",
            "type": "function"
        },
        {
            "inputs": [
                {
                    "internalType": "address",
                    "name": "",
                    "type": "address"
                },
                {
                    "internalType": "address",
                    "name": "",
                    "type": "address"
                }
            ],
            "name": "isApproved",
            "outputs": [
                {
                    "internalType": "bool",
                    "name": "",
                    "type": "bool"
                }
            ],
            "stateMutability": "view",
            "type": "function"
        },
        {
            "inputs": [
                {
                    "internalType": "address",
                    "name": "",
                    "type": "address"
                }
            ],
            "name": "isDoctor",
            "outputs": [
                {
                    "internalType": "bool",
                    "name": "",
                    "type": "bool"
                }
            ],
            "stateMutability": "view",
            "type": "function"
        },
        {
            "inputs": [
                {
                    "internalType": "address",
                    "name": "",
                    "type": "address"
                }
            ],
            "name": "isPatient",
            "outputs": [
                {
                    "internalType": "bool",
                    "name": "",
                    "type": "bool"
                }
            ],
            "stateMutability": "view",
            "type": "function"
        },
        {
            "inputs": [],
            "name": "owner",
            "outputs": [
                {
                    "internalType": "address",
                    "name": "",
                    "type": "address"
                }
            ],
            "stateMutability": "view",
            "type": "function"
        },
        {
            "inputs": [],
            "name": "patientCount",
            "outputs": [
                {
                    "internalType": "uint256",
                    "name": "",
                    "type": "uint256"
                }
            ],
            "stateMutability": "view",
            "type": "function"
        },
        {
            "inputs": [
                {
                    "internalType": "uint256",
                    "name": "",
                    "type": "uint256"
                }
            ],
            "name": "patientList",
            "outputs": [
                {
                    "internalType": "address",
                    "name": "",
                    "type": "address"
                }
            ],
            "stateMutability": "view",
            "type": "function"
        },
        {
            "inputs": [
                {
                    "internalType": "address",
                    "name": "",
                    "type": "address"
                }
            ],
            "name": "patients",
            "outputs": [
                {
                    "internalType": "string",
                    "name": "ic",
                    "type": "string"
                },
                {
                    "internalType": "string",
                    "name": "name",
                    "type": "string"
                },
                {
                    "internalType": "string",
                    "name": "gender",
                    "type": "string"
                },
                {
                    "internalType": "string",
                    "name": "phone",
                    "type": "string"
                },
                {
                    "internalType": "string",
                    "name": "dob",
                    "type": "string"
                },
                {
                    "internalType": "string",
                    "name": "addressHome",
                    "type": "string"
                },
                {
                    "internalType": "string",
                    "name": "bloodgroup",
                    "type": "string"
                },
                {
                    "internalType": "string",
                    "name": "medication",
                    "type": "string"
                },
                {
                    "internalType": "string",
                    "name": "avatar",
                    "type": "string"
                },
                {
                    "internalType": "address",
                    "name": "addr",
                    "type": "address"
                },
                {
                    "internalType": "uint256",
                    "name": "date",
                    "type": "uint256"
                }
            ],
            "stateMutability": "view",
            "type": "function"
        },
        {
            "inputs": [],
            "name": "permissionGrantedCount",
            "outputs": [
                {
                    "internalType": "uint256",
                    "name": "",
                    "type": "uint256"
                }
            ],
            "stateMutability": "view",
            "type": "function"
        },
        {
            "inputs": [
                {
                    "internalType": "address",
                    "name": "_address",
                    "type": "address"
                }
            ],
            "name": "searchAppointment",
            "outputs": [
                {
                    "internalType": "address",
                    "name": "",
                    "type": "address"
                },
                {
                    "internalType": "string",
                    "name": "",
                    "type": "string"
                },
                {
                    "internalType": "string",
                    "name": "",
                    "type": "string"
                },
                {
                    "internalType": "string",
                    "name": "",
                    "type": "string"
                },
                {
                    "internalType": "string",
                    "name": "",
                    "type": "string"
                },
                {
                    "internalType": "string",
                    "name": "",
                    "type": "string"
                },
                {
                    "internalType": "string",
                    "name": "",
                    "type": "string"
                },
                {
                    "internalType": "string",
                    "name": "",
                    "type": "string"
                }
            ],
            "stateMutability": "view",
            "type": "function"
        },
        {
            "inputs": [
                {
                    "internalType": "address",
                    "name": "_address",
                    "type": "address"
                }
            ],
            "name": "searchAppointmentDate",
            "outputs": [
                {
                    "internalType": "uint256",
                    "name": "",
                    "type": "uint256"
                }
            ],
            "stateMutability": "view",
            "type": "function"
        },
        {
            "inputs": [
                {
                    "internalType": "address",
                    "name": "_address",
                    "type": "address"
                }
            ],
            "name": "searchDoctor",
            "outputs": [
                {
                    "internalType": "string",
                    "name": "",
                    "type": "string"
                },
                {
                    "internalType": "string",
                    "name": "",
                    "type": "string"
                },
                {
                    "internalType": "string",
                    "name": "",
                    "type": "string"
                },
                {
                    "internalType": "string",
                    "name": "",
                    "type": "string"
                },
                {
                    "internalType": "string",
                    "name": "",
                    "type": "string"
                },
                {
                    "internalType": "string",
                    "name": "",
                    "type": "string"
                },
                {
                    "internalType": "string",
                    "name": "",
                    "type": "string"
                },
                {
                    "internalType": "string",
                    "name": "",
                    "type": "string"
                }
            ],
            "stateMutability": "view",
            "type": "function"
        },
        {
            "inputs": [
                {
                    "internalType": "address",
                    "name": "_address",
                    "type": "address"
                }
            ],
            "name": "searchDoctorDate",
            "outputs": [
                {
                    "internalType": "uint256",
                    "name": "",
                    "type": "uint256"
                }
            ],
            "stateMutability": "view",
            "type": "function"
        },
        {
            "inputs": [
                {
                    "internalType": "address",
                    "name": "_address",
                    "type": "address"
                }
            ],
            "name": "searchPatientDemographic",
            "outputs": [
                {
                    "internalType": "string",
                    "name": "",
                    "type": "string"
                },
                {
                    "internalType": "string",
                    "name": "",
                    "type": "string"
                },
                {
                    "internalType": "string",
                    "name": "",
                    "type": "string"
                },
                {
                    "internalType": "string",
                    "name": "",
                    "type": "string"
                },
                {
                    "internalType": "string",
                    "name": "",
                    "type": "string"
                },
                {
                    "internalType": "string",
                    "name": "",
                    "type": "string"
                }
            ],
            "stateMutability": "view",
            "type": "function"
        },
        {
            "inputs": [
                {
                    "internalType": "address",
                    "name": "_address",
                    "type": "address"
                }
            ],
            "name": "searchPatientMedical",
            "outputs": [
                {
                    "internalType": "string",
                    "name": "",
                    "type": "string"
                },
                {
                    "internalType": "string",
                    "name": "",
                    "type": "string"
                },
                {
                    "internalType": "string",
                    "name": "",
                    "type": "string"
                },
                {
                    "internalType": "string",
                    "name": "",
                    "type": "string"
                }
            ],
            "stateMutability": "view",
            "type": "function"
        },
        {
            "inputs": [
                {
                    "internalType": "address",
                    "name": "_address",
                    "type": "address"
                }
            ],
            "name": "searchRecordDate",
            "outputs": [
                {
                    "internalType": "uint256",
                    "name": "",
                    "type": "uint256"
                }
            ],
            "stateMutability": "view",
            "type": "function"
        },
        {
            "inputs": [
                {
                    "internalType": "address",
                    "name": "_addr",
                    "type": "address"
                },
                {
                    "internalType": "string",
                    "name": "_date",
                    "type": "string"
                },
                {
                    "internalType": "string",
                    "name": "_time",
                    "type": "string"
                },
                {
                    "internalType": "string",
                    "name": "_diagnosis",
                    "type": "string"
                },
                {
                    "internalType": "string",
                    "name": "_prescription",
                    "type": "string"
                },
                {
                    "internalType": "string",
                    "name": "_description",
                    "type": "string"
                },
                {
                    "internalType": "string",
                    "name": "_status",
                    "type": "string"
                }
            ],
            "name": "setAppointment",
            "outputs": [],
            "stateMutability": "nonpayable",
            "type": "function"
        },
        {
            "inputs": [
                {
                    "internalType": "string",
                    "name": "_ic",
                    "type": "string"
                },
                {
                    "internalType": "string",
                    "name": "_name",
                    "type": "string"
                },
                {
                    "internalType": "string",
                    "name": "_gender",
                    "type": "string"
                },
                {
                    "internalType": "string",
                    "name": "_phone",
                    "type": "string"
                },
                {
                    "internalType": "string",
                    "name": "_dob",
                    "type": "string"
                },
                {
                    "internalType": "string",
                    "name": "_addressHome",
                    "type": "string"
                },
                {
                    "internalType": "string",
                    "name": "_bloodgroup",
                    "type": "string"
                },
                {
                    "internalType": "string",
                    "name": "_medication",
                    "type": "string"
                },
                {
                    "internalType": "string",
                    "name": "_avatar",
                    "type": "string"
                }
            ],
            "name": "setDetails",
            "outputs": [],
            "stateMutability": "nonpayable",
            "type": "function"
        },
        {
            "inputs": [
                {
                    "internalType": "string",
                    "name": "_ic",
                    "type": "string"
                },
                {
                    "internalType": "string",
                    "name": "_name",
                    "type": "string"
                },
                {
                    "internalType": "string",
                    "name": "_phone",
                    "type": "string"
                },
                {
                    "internalType": "string",
                    "name": "_gender",
                    "type": "string"
                },
                {
                    "internalType": "string",
                    "name": "_dob",
                    "type": "string"
                },
                {
                    "internalType": "string",
                    "name": "_qualification",
                    "type": "string"
                },
                {
                    "internalType": "string",
                    "name": "_major",
                    "type": "string"
                },
                {
                    "internalType": "string",
                    "name": "_avatar",
                    "type": "string"
                }
            ],
            "name": "setDoctor",
            "outputs": [],
            "stateMutability": "nonpayable",
            "type": "function"
        },
        {
            "inputs": [
                {
                    "internalType": "address",
                    "name": "_addr",
                    "type": "address"
                },
                {
                    "internalType": "string",
                    "name": "_date",
                    "type": "string"
                },
                {
                    "internalType": "string",
                    "name": "_time",
                    "type": "string"
                },
                {
                    "internalType": "string",
                    "name": "_diagnosis",
                    "type": "string"
                },
                {
                    "internalType": "string",
                    "name": "_prescription",
                    "type": "string"
                },
                {
                    "internalType": "string",
                    "name": "_description",
                    "type": "string"
                },
                {
                    "internalType": "string",
                    "name": "_status",
                    "type": "string"
                }
            ],
            "name": "updateAppointment",
            "outputs": [],
            "stateMutability": "nonpayable",
            "type": "function"
        }
    ],
    "bytecode": "0x60806040526000600b556000600c556000600d556000600e5534801561002457600080fd5b50336000806101000a81548173ffffffffffffffffffffffffffffffffffffffff021916908373ffffffffffffffffffffffffffffffffffffffff160217905550614b38806100746000396000f3fe608060405234801561001057600080fd5b50600436106102325760003560e01c80638da5cb5b11610130578063babb1d41116100b8578063caee6c851161007c578063caee6c8514610767578063cbb892351461079e578063e6fce0d2146107ba578063e93a15b9146107ea578063eebc3fb21461081a57610232565b8063babb1d41146106af578063bd6f972b146106df578063c0cb24ba1461070f578063c190665b1461072d578063c1b80e0b1461074b57610232565b8063996440c6116100ff578063996440c6146105da578063a0303c411461060a578063a389783e14610628578063a9583c2214610658578063b13d5d941461069157610232565b80638da5cb5b146105375780638f9c79ed14610555578063920419821461058557806396b80d08146105bc57610232565b8063326c2f9d116101be578063625961fc11610182578063625961fc1461047757806378522bc4146104a757806379111c1c146104c55780637a7d8f63146104e357806383e640cc1461051b57610232565b8063326c2f9d146103965780633bc98280146103c65780633d391f70146103fb5780634c14b38d1461042b578063608ae4c41461045b57610232565b8063245f968611610205578063245f9686146102ef57806324c24b2b1461030b578063261b73f31461032957806329e4afbb146103455780632a825ba01461036357610232565b806302516abd146102375780630869cfbc14610267578063127ca4b4146102a157806312ad1c37146102d1575b600080fd5b610251600480360381019061024c9190613a42565b610838565b60405161025e9190613a8a565b60405180910390f35b610281600480360381019061027c9190613a42565b6108d7565b6040516102989b9a99989796959493929190613b5d565b60405180910390f35b6102bb60048036038101906102b69190613c73565b610e19565b6040516102c89190613ca0565b60405180910390f35b6102d9610e58565b6040516102e69190613d79565b60405180910390f35b61030960048036038101906103049190613ed0565b610ee6565b005b610313611154565b604051610320919061401a565b60405180910390f35b610343600480360381019061033e9190613ed0565b61115e565b005b61034d6112f3565b60405161035a919061401a565b60405180910390f35b61037d60048036038101906103789190613a42565b6112fd565b60405161038d9493929190614035565b60405180910390f35b6103b060048036038101906103ab9190613a42565b611629565b6040516103bd919061401a565b60405180910390f35b6103e060048036038101906103db9190613a42565b611641565b6040516103f296959493929190614096565b60405180910390f35b61041560048036038101906104109190613a42565b611a96565b6040516104229190613a8a565b60405180910390f35b61044560048036038101906104409190613a42565b611b4e565b604051610452919061401a565b60405180910390f35b61047560048036038101906104709190614121565b611b9f565b005b610491600480360381019061048c9190613a42565b611d29565b60405161049e919061401a565b60405180910390f35b6104af611d7a565b6040516104bc919061401a565b60405180910390f35b6104cd611d80565b6040516104da919061401a565b60405180910390f35b6104fd60048036038101906104f89190613a42565b611d8a565b604051610512999897969594939291906142e7565b60405180910390f35b6105356004803603810190610530919061439e565b612148565b005b61053f6122bf565b60405161054c9190613ca0565b60405180910390f35b61056f600480360381019061056a9190613a42565b6122e3565b60405161057c9190613a8a565b60405180910390f35b61059f600480360381019061059a9190613a42565b612303565b6040516105b3989796959493929190614534565b60405180910390f35b6105c46127ec565b6040516105d19190613d79565b60405180910390f35b6105f460048036038101906105ef9190613a42565b61287a565b6040516106019190613a8a565b60405180910390f35b61061261289a565b60405161061f919061401a565b60405180910390f35b610642600480360381019061063d91906145e3565b6128a0565b60405161064f9190613a8a565b60405180910390f35b610672600480360381019061066d9190613a42565b6128cf565b6040516106889a99989796959493929190614623565b60405180910390f35b610699612d83565b6040516106a69190613d79565b60405180910390f35b6106c960048036038101906106c49190613c73565b612e11565b6040516106d69190613ca0565b60405180910390f35b6106f960048036038101906106f49190613a42565b612e50565b604051610706919061401a565b60405180910390f35b610717612ea1565b604051610724919061401a565b60405180910390f35b610735612ea7565b604051610742919061401a565b60405180910390f35b6107656004803603810190610760919061439e565b612eb1565b005b610781600480360381019061077c9190613a42565b613105565b6040516107959897969594939291906146f7565b60405180910390f35b6107b860048036038101906107b39190614121565b613646565b005b6107d460048036038101906107cf9190613c73565b613942565b6040516107e19190613ca0565b60405180910390f35b61080460048036038101906107ff9190613a42565b613981565b604051610811919061401a565b60405180910390f35b6108226139ca565b60405161082f919061401a565b60405180910390f35b600080600760003373ffffffffffffffffffffffffffffffffffffffff1673ffffffffffffffffffffffffffffffffffffffff16815260200190815260200160002060008473ffffffffffffffffffffffffffffffffffffffff1673ffffffffffffffffffffffffffffffffffffffff16815260200190815260200160002060006101000a81548160ff02191690831515021790555060019050919050565b60046020528060005260406000206000915090508060000180546108fa906147dc565b80601f0160208091040260200160405190810160405280929190818152602001828054610926906147dc565b80156109735780601f1061094857610100808354040283529160200191610973565b820191906000526020600020905b81548152906001019060200180831161095657829003601f168201915b505050505090806001018054610988906147dc565b80601f01602080910402602001604051908101604052809291908181526020018280546109b4906147dc565b8015610a015780601f106109d657610100808354040283529160200191610a01565b820191906000526020600020905b8154815290600101906020018083116109e457829003601f168201915b505050505090806002018054610a16906147dc565b80601f0160208091040260200160405190810160405280929190818152602001828054610a42906147dc565b8015610a8f5780601f10610a6457610100808354040283529160200191610a8f565b820191906000526020600020905b815481529060010190602001808311610a7257829003601f168201915b505050505090806003018054610aa4906147dc565b80601f0160208091040260200160405190810160405280929190818152602001828054610ad0906147dc565b8015610b1d5780601f10610af257610100808354040283529160200191610b1d565b820191906000526020600020905b815481529060010190602001808311610b0057829003601f168201915b505050505090806004018054610b32906147dc565b80601f0160208091040260200160405190810160405280929190818152602001828054610b5e906147dc565b8015610bab5780601f10610b8057610100808354040283529160200191610bab565b820191906000526020600020905b815481529060010190602001808311610b8e57829003601f168201915b505050505090806005018054610bc0906147dc565b80601f0160208091040260200160405190810160405280929190818152602001828054610bec906147dc565b8015610c395780601f10610c0e57610100808354040283529160200191610c39565b820191906000526020600020905b815481529060010190602001808311610c1c57829003601f168201915b505050505090806006018054610c4e906147dc565b80601f0160208091040260200160405190810160405280929190818152602001828054610c7a906147dc565b8015610cc75780601f10610c9c57610100808354040283529160200191610cc7565b820191906000526020600020905b815481529060010190602001808311610caa57829003601f168201915b505050505090806007018054610cdc906147dc565b80601f0160208091040260200160405190810160405280929190818152602001828054610d08906147dc565b8015610d555780601f10610d2a57610100808354040283529160200191610d55565b820191906000526020600020905b815481529060010190602001808311610d3857829003601f168201915b505050505090806008018054610d6a906147dc565b80601f0160208091040260200160405190810160405280929190818152602001828054610d96906147dc565b8015610de35780601f10610db857610100808354040283529160200191610de3565b820191906000526020600020905b815481529060010190602001808311610dc657829003601f168201915b5050505050908060090160009054906101000a900473ffffffffffffffffffffffffffffffffffffffff169080600a015490508b565b60028181548110610e2957600080fd5b906000526020600020016000915054906101000a900473ffffffffffffffffffffffffffffffffffffffff1681565b60606001805480602002602001604051908101604052809291908181526020018280548015610edc57602002820191906000526020600020905b8160009054906101000a900473ffffffffffffffffffffffffffffffffffffffff1673ffffffffffffffffffffffffffffffffffffffff1681526020019060010190808311610e92575b5050505050905090565b600960003373ffffffffffffffffffffffffffffffffffffffff1673ffffffffffffffffffffffffffffffffffffffff16815260200190815260200160002060009054906101000a900460ff16610f3c57600080fd5b6000600660008973ffffffffffffffffffffffffffffffffffffffff1673ffffffffffffffffffffffffffffffffffffffff1681526020019081526020016000209050338160000160006101000a81548173ffffffffffffffffffffffffffffffffffffffff021916908373ffffffffffffffffffffffffffffffffffffffff160217905550878160010160006101000a81548173ffffffffffffffffffffffffffffffffffffffff021916908373ffffffffffffffffffffffffffffffffffffffff1602179055508681600201908161101691906149b9565b508581600301908161102891906149b9565b508481600601908161103a91906149b9565b508381600401908161104c91906149b9565b508281600501908161105e91906149b9565b508181600701908161107091906149b9565b504281600801819055506003889080600181540180825580915050600190039060005260206000200160009091909190916101000a81548173ffffffffffffffffffffffffffffffffffffffff021916908373ffffffffffffffffffffffffffffffffffffffff160217905550600d60008154809291906110f090614aba565b9190505550600a60008973ffffffffffffffffffffffffffffffffffffffff1673ffffffffffffffffffffffffffffffffffffffff168152602001908152602001600020600081548092919061114590614aba565b91905055505050505050505050565b6000600e54905090565b600960003373ffffffffffffffffffffffffffffffffffffffff1673ffffffffffffffffffffffffffffffffffffffff16815260200190815260200160002060009054906101000a900460ff166111b457600080fd5b6000600660008973ffffffffffffffffffffffffffffffffffffffff1673ffffffffffffffffffffffffffffffffffffffff1681526020019081526020016000209050338160000160006101000a81548173ffffffffffffffffffffffffffffffffffffffff021916908373ffffffffffffffffffffffffffffffffffffffff160217905550878160010160006101000a81548173ffffffffffffffffffffffffffffffffffffffff021916908373ffffffffffffffffffffffffffffffffffffffff1602179055508681600201908161128e91906149b9565b50858160030190816112a091906149b9565b50848160060190816112b291906149b9565b50838160040190816112c491906149b9565b50828160050190816112d691906149b9565b50818160070190816112e891906149b9565b505050505050505050565b6000600d54905090565b606080606080600760008673ffffffffffffffffffffffffffffffffffffffff1673ffffffffffffffffffffffffffffffffffffffff16815260200190815260200160002060003373ffffffffffffffffffffffffffffffffffffffff1673ffffffffffffffffffffffffffffffffffffffff16815260200190815260200160002060009054906101000a900460ff1661139657600080fd5b6000600460008773ffffffffffffffffffffffffffffffffffffffff1673ffffffffffffffffffffffffffffffffffffffff1681526020019081526020016000209050806005018160060182600701836002018380546113f5906147dc565b80601f0160208091040260200160405190810160405280929190818152602001828054611421906147dc565b801561146e5780601f106114435761010080835404028352916020019161146e565b820191906000526020600020905b81548152906001019060200180831161145157829003601f168201915b50505050509350828054611481906147dc565b80601f01602080910402602001604051908101604052809291908181526020018280546114ad906147dc565b80156114fa5780601f106114cf576101008083540402835291602001916114fa565b820191906000526020600020905b8154815290600101906020018083116114dd57829003601f168201915b5050505050925081805461150d906147dc565b80601f0160208091040260200160405190810160405280929190818152602001828054611539906147dc565b80156115865780601f1061155b57610100808354040283529160200191611586565b820191906000526020600020905b81548152906001019060200180831161156957829003601f168201915b50505050509150808054611599906147dc565b80601f01602080910402602001604051908101604052809291908181526020018280546115c5906147dc565b80156116125780601f106115e757610100808354040283529160200191611612565b820191906000526020600020905b8154815290600101906020018083116115f557829003601f168201915b505050505090509450945094509450509193509193565b600a6020528060005260406000206000915090505481565b606080606080606080600760008873ffffffffffffffffffffffffffffffffffffffff1673ffffffffffffffffffffffffffffffffffffffff16815260200190815260200160002060003373ffffffffffffffffffffffffffffffffffffffff1673ffffffffffffffffffffffffffffffffffffffff16815260200190815260200160002060009054906101000a900460ff166116dd57600080fd5b6000600460008973ffffffffffffffffffffffffffffffffffffffff1673ffffffffffffffffffffffffffffffffffffffff1681526020019081526020016000209050806000018160010182600301836004018460020185600801858054611744906147dc565b80601f0160208091040260200160405190810160405280929190818152602001828054611770906147dc565b80156117bd5780601f10611792576101008083540402835291602001916117bd565b820191906000526020600020905b8154815290600101906020018083116117a057829003601f168201915b505050505095508480546117d0906147dc565b80601f01602080910402602001604051908101604052809291908181526020018280546117fc906147dc565b80156118495780601f1061181e57610100808354040283529160200191611849565b820191906000526020600020905b81548152906001019060200180831161182c57829003601f168201915b5050505050945083805461185c906147dc565b80601f0160208091040260200160405190810160405280929190818152602001828054611888906147dc565b80156118d55780601f106118aa576101008083540402835291602001916118d5565b820191906000526020600020905b8154815290600101906020018083116118b857829003601f168201915b505050505093508280546118e8906147dc565b80601f0160208091040260200160405190810160405280929190818152602001828054611914906147dc565b80156119615780601f1061193657610100808354040283529160200191611961565b820191906000526020600020905b81548152906001019060200180831161194457829003601f168201915b50505050509250818054611974906147dc565b80601f01602080910402602001604051908101604052809291908181526020018280546119a0906147dc565b80156119ed5780601f106119c2576101008083540402835291602001916119ed565b820191906000526020600020905b8154815290600101906020018083116119d057829003601f168201915b50505050509150808054611a00906147dc565b80601f0160208091040260200160405190810160405280929190818152602001828054611a2c906147dc565b8015611a795780601f10611a4e57610100808354040283529160200191611a79565b820191906000526020600020905b815481529060010190602001808311611a5c57829003601f168201915b505050505090509650965096509650965096505091939550919395565b60006001600760003373ffffffffffffffffffffffffffffffffffffffff1673ffffffffffffffffffffffffffffffffffffffff16815260200190815260200160002060008473ffffffffffffffffffffffffffffffffffffffff1673ffffffffffffffffffffffffffffffffffffffff16815260200190815260200160002060006101000a81548160ff021916908315150217905550600e6000815480929190611b4090614aba565b919050555060019050919050565b600080600660008473ffffffffffffffffffffffffffffffffffffffff1673ffffffffffffffffffffffffffffffffffffffff16815260200190815260200160002090508060080154915050919050565b600860003373ffffffffffffffffffffffffffffffffffffffff1673ffffffffffffffffffffffffffffffffffffffff16815260200190815260200160002060009054906101000a900460ff16611bf557600080fd5b6000600460003373ffffffffffffffffffffffffffffffffffffffff1673ffffffffffffffffffffffffffffffffffffffff168152602001908152602001600020905089816000019081611c4991906149b9565b5088816001019081611c5b91906149b9565b5087816002019081611c6d91906149b9565b5086816003019081611c7f91906149b9565b5085816004019081611c9191906149b9565b5084816005019081611ca391906149b9565b5083816006019081611cb591906149b9565b5082816007019081611cc791906149b9565b5081816008019081611cd991906149b9565b50338160090160006101000a81548173ffffffffffffffffffffffffffffffffffffffff021916908373ffffffffffffffffffffffffffffffffffffffff16021790555050505050505050505050565b600080600560008473ffffffffffffffffffffffffffffffffffffffff1673ffffffffffffffffffffffffffffffffffffffff16815260200190815260200160002090508060090154915050919050565b600c5481565b6000600c54905090565b60066020528060005260406000206000915090508060000160009054906101000a900473ffffffffffffffffffffffffffffffffffffffff16908060010160009054906101000a900473ffffffffffffffffffffffffffffffffffffffff1690806002018054611df9906147dc565b80601f0160208091040260200160405190810160405280929190818152602001828054611e25906147dc565b8015611e725780601f10611e4757610100808354040283529160200191611e72565b820191906000526020600020905b815481529060010190602001808311611e5557829003601f168201915b505050505090806003018054611e87906147dc565b80601f0160208091040260200160405190810160405280929190818152602001828054611eb3906147dc565b8015611f005780601f10611ed557610100808354040283529160200191611f00565b820191906000526020600020905b815481529060010190602001808311611ee357829003601f168201915b505050505090806004018054611f15906147dc565b80601f0160208091040260200160405190810160405280929190818152602001828054611f41906147dc565b8015611f8e5780601f10611f6357610100808354040283529160200191611f8e565b820191906000526020600020905b815481529060010190602001808311611f7157829003601f168201915b505050505090806005018054611fa3906147dc565b80601f0160208091040260200160405190810160405280929190818152602001828054611fcf906147dc565b801561201c5780601f10611ff15761010080835404028352916020019161201c565b820191906000526020600020905b815481529060010190602001808311611fff57829003601f168201915b505050505090806006018054612031906147dc565b80601f016020809104026020016040519081016040528092919081815260200182805461205d906147dc565b80156120aa5780601f1061207f576101008083540402835291602001916120aa565b820191906000526020600020905b81548152906001019060200180831161208d57829003601f168201915b5050505050908060070180546120bf906147dc565b80601f01602080910402602001604051908101604052809291908181526020018280546120eb906147dc565b80156121385780601f1061210d57610100808354040283529160200191612138565b820191906000526020600020905b81548152906001019060200180831161211b57829003601f168201915b5050505050908060080154905089565b600960003373ffffffffffffffffffffffffffffffffffffffff1673ffffffffffffffffffffffffffffffffffffffff16815260200190815260200160002060009054906101000a900460ff1661219e57600080fd5b6000600560003373ffffffffffffffffffffffffffffffffffffffff1673ffffffffffffffffffffffffffffffffffffffff1681526020019081526020016000209050888160000190816121f291906149b9565b508781600101908161220491906149b9565b508681600201908161221691906149b9565b508581600301908161222891906149b9565b508481600401908161223a91906149b9565b508381600501908161224c91906149b9565b508281600601908161225e91906149b9565b508181600701908161227091906149b9565b50338160080160006101000a81548173ffffffffffffffffffffffffffffffffffffffff021916908373ffffffffffffffffffffffffffffffffffffffff160217905550505050505050505050565b60008054906101000a900473ffffffffffffffffffffffffffffffffffffffff1681565b60086020528060005260406000206000915054906101000a900460ff1681565b600060608060608060608060606000600660008b73ffffffffffffffffffffffffffffffffffffffff1673ffffffffffffffffffffffffffffffffffffffff16815260200190815260200160002090506000600560008360000160009054906101000a900473ffffffffffffffffffffffffffffffffffffffff1673ffffffffffffffffffffffffffffffffffffffff1673ffffffffffffffffffffffffffffffffffffffff16815260200190815260200160002090508160000160009054906101000a900473ffffffffffffffffffffffffffffffffffffffff1681600101836002018460030185600601866004018760050188600701868054612407906147dc565b80601f0160208091040260200160405190810160405280929190818152602001828054612433906147dc565b80156124805780601f1061245557610100808354040283529160200191612480565b820191906000526020600020905b81548152906001019060200180831161246357829003601f168201915b50505050509650858054612493906147dc565b80601f01602080910402602001604051908101604052809291908181526020018280546124bf906147dc565b801561250c5780601f106124e15761010080835404028352916020019161250c565b820191906000526020600020905b8154815290600101906020018083116124ef57829003601f168201915b5050505050955084805461251f906147dc565b80601f016020809104026020016040519081016040528092919081815260200182805461254b906147dc565b80156125985780601f1061256d57610100808354040283529160200191612598565b820191906000526020600020905b81548152906001019060200180831161257b57829003601f168201915b505050505094508380546125ab906147dc565b80601f01602080910402602001604051908101604052809291908181526020018280546125d7906147dc565b80156126245780601f106125f957610100808354040283529160200191612624565b820191906000526020600020905b81548152906001019060200180831161260757829003601f168201915b50505050509350828054612637906147dc565b80601f0160208091040260200160405190810160405280929190818152602001828054612663906147dc565b80156126b05780601f10612685576101008083540402835291602001916126b0565b820191906000526020600020905b81548152906001019060200180831161269357829003601f168201915b505050505092508180546126c3906147dc565b80601f01602080910402602001604051908101604052809291908181526020018280546126ef906147dc565b801561273c5780601f106127115761010080835404028352916020019161273c565b820191906000526020600020905b81548152906001019060200180831161271f57829003601f168201915b5050505050915080805461274f906147dc565b80601f016020809104026020016040519081016040528092919081815260200182805461277b906147dc565b80156127c85780601f1061279d576101008083540402835291602001916127c8565b820191906000526020600020905b8154815290600101906020018083116127ab57829003601f168201915b50505050509050995099509950995099509950995099505050919395975091939597565b6060600380548060200260200160405190810160405280929190818152602001828054801561287057602002820191906000526020600020905b8160009054906101000a900473ffffffffffffffffffffffffffffffffffffffff1673ffffffffffffffffffffffffffffffffffffffff1681526020019060010190808311612826575b5050505050905090565b60096020528060005260406000206000915054906101000a900460ff1681565b600b5481565b60076020528160005260406000206020528060005260406000206000915091509054906101000a900460ff1681565b60056020528060005260406000206000915090508060000180546128f2906147dc565b80601f016020809104026020016040519081016040528092919081815260200182805461291e906147dc565b801561296b5780601f106129405761010080835404028352916020019161296b565b820191906000526020600020905b81548152906001019060200180831161294e57829003601f168201915b505050505090806001018054612980906147dc565b80601f01602080910402602001604051908101604052809291908181526020018280546129ac906147dc565b80156129f95780601f106129ce576101008083540402835291602001916129f9565b820191906000526020600020905b8154815290600101906020018083116129dc57829003601f168201915b505050505090806002018054612a0e906147dc565b80601f0160208091040260200160405190810160405280929190818152602001828054612a3a906147dc565b8015612a875780601f10612a5c57610100808354040283529160200191612a87565b820191906000526020600020905b815481529060010190602001808311612a6a57829003601f168201915b505050505090806003018054612a9c906147dc565b80601f0160208091040260200160405190810160405280929190818152602001828054612ac8906147dc565b8015612b155780601f10612aea57610100808354040283529160200191612b15565b820191906000526020600020905b815481529060010190602001808311612af857829003601f168201915b505050505090806004018054612b2a906147dc565b80601f0160208091040260200160405190810160405280929190818152602001828054612b56906147dc565b8015612ba35780601f10612b7857610100808354040283529160200191612ba3565b820191906000526020600020905b815481529060010190602001808311612b8657829003601f168201915b505050505090806005018054612bb8906147dc565b80601f0160208091040260200160405190810160405280929190818152602001828054612be4906147dc565b8015612c315780601f10612c0657610100808354040283529160200191612c31565b820191906000526020600020905b815481529060010190602001808311612c1457829003601f168201915b505050505090806006018054612c46906147dc565b80601f0160208091040260200160405190810160405280929190818152602001828054612c72906147dc565b8015612cbf5780601f10612c9457610100808354040283529160200191612cbf565b820191906000526020600020905b815481529060010190602001808311612ca257829003601f168201915b505050505090806007018054612cd4906147dc565b80601f0160208091040260200160405190810160405280929190818152602001828054612d00906147dc565b8015612d4d5780601f10612d2257610100808354040283529160200191612d4d565b820191906000526020600020905b815481529060010190602001808311612d3057829003601f168201915b5050505050908060080160009054906101000a900473ffffffffffffffffffffffffffffffffffffffff1690806009015490508a565b60606002805480602002602001604051908101604052809291908181526020018280548015612e0757602002820191906000526020600020905b8160009054906101000a900473ffffffffffffffffffffffffffffffffffffffff1673ffffffffffffffffffffffffffffffffffffffff1681526020019060010190808311612dbd575b5050505050905090565b60018181548110612e2157600080fd5b906000526020600020016000915054906101000a900473ffffffffffffffffffffffffffffffffffffffff1681565b600080600460008473ffffffffffffffffffffffffffffffffffffffff1673ffffffffffffffffffffffffffffffffffffffff168152602001908152602001600020905080600a0154915050919050565b600e5481565b6000600b54905090565b600960003373ffffffffffffffffffffffffffffffffffffffff1673ffffffffffffffffffffffffffffffffffffffff16815260200190815260200160002060009054906101000a900460ff1615612f0857600080fd5b6000600560003373ffffffffffffffffffffffffffffffffffffffff1673ffffffffffffffffffffffffffffffffffffffff168152602001908152602001600020905088816000019081612f5c91906149b9565b5087816001019081612f6e91906149b9565b5086816002019081612f8091906149b9565b5085816003019081612f9291906149b9565b5084816004019081612fa491906149b9565b5083816005019081612fb691906149b9565b5082816006019081612fc891906149b9565b5081816007019081612fda91906149b9565b50338160080160006101000a81548173ffffffffffffffffffffffffffffffffffffffff021916908373ffffffffffffffffffffffffffffffffffffffff1602179055504281600901819055506002339080600181540180825580915050600190039060005260206000200160009091909190916101000a81548173ffffffffffffffffffffffffffffffffffffffff021916908373ffffffffffffffffffffffffffffffffffffffff1602179055506001600960003373ffffffffffffffffffffffffffffffffffffffff1673ffffffffffffffffffffffffffffffffffffffff16815260200190815260200160002060006101000a81548160ff021916908315150217905550600c60008154809291906130f590614aba565b9190505550505050505050505050565b606080606080606080606080600960008a73ffffffffffffffffffffffffffffffffffffffff1673ffffffffffffffffffffffffffffffffffffffff16815260200190815260200160002060009054906101000a900460ff1661316757600080fd5b6000600560008b73ffffffffffffffffffffffffffffffffffffffff1673ffffffffffffffffffffffffffffffffffffffff168152602001908152602001600020905080600001816001018260020183600301846004018560050186600601876007018780546131d6906147dc565b80601f0160208091040260200160405190810160405280929190818152602001828054613202906147dc565b801561324f5780601f106132245761010080835404028352916020019161324f565b820191906000526020600020905b81548152906001019060200180831161323257829003601f168201915b50505050509750868054613262906147dc565b80601f016020809104026020016040519081016040528092919081815260200182805461328e906147dc565b80156132db5780601f106132b0576101008083540402835291602001916132db565b820191906000526020600020905b8154815290600101906020018083116132be57829003601f168201915b505050505096508580546132ee906147dc565b80601f016020809104026020016040519081016040528092919081815260200182805461331a906147dc565b80156133675780601f1061333c57610100808354040283529160200191613367565b820191906000526020600020905b81548152906001019060200180831161334a57829003601f168201915b5050505050955084805461337a906147dc565b80601f01602080910402602001604051908101604052809291908181526020018280546133a6906147dc565b80156133f35780601f106133c8576101008083540402835291602001916133f3565b820191906000526020600020905b8154815290600101906020018083116133d657829003601f168201915b50505050509450838054613406906147dc565b80601f0160208091040260200160405190810160405280929190818152602001828054613432906147dc565b801561347f5780601f106134545761010080835404028352916020019161347f565b820191906000526020600020905b81548152906001019060200180831161346257829003601f168201915b50505050509350828054613492906147dc565b80601f01602080910402602001604051908101604052809291908181526020018280546134be906147dc565b801561350b5780601f106134e05761010080835404028352916020019161350b565b820191906000526020600020905b8154815290600101906020018083116134ee57829003601f168201915b5050505050925081805461351e906147dc565b80601f016020809104026020016040519081016040528092919081815260200182805461354a906147dc565b80156135975780601f1061356c57610100808354040283529160200191613597565b820191906000526020600020905b81548152906001019060200180831161357a57829003601f168201915b505050505091508080546135aa906147dc565b80601f01602080910402602001604051908101604052809291908181526020018280546135d6906147dc565b80156136235780601f106135f857610100808354040283529160200191613623565b820191906000526020600020905b81548152906001019060200180831161360657829003601f168201915b505050505090509850985098509850985098509850985050919395975091939597565b600860003373ffffffffffffffffffffffffffffffffffffffff1673ffffffffffffffffffffffffffffffffffffffff16815260200190815260200160002060009054906101000a900460ff161561369d57600080fd5b6000600460003373ffffffffffffffffffffffffffffffffffffffff1673ffffffffffffffffffffffffffffffffffffffff1681526020019081526020016000209050898160000190816136f191906149b9565b508881600101908161370391906149b9565b508781600201908161371591906149b9565b508681600301908161372791906149b9565b508581600401908161373991906149b9565b508481600501908161374b91906149b9565b508381600601908161375d91906149b9565b508281600701908161376f91906149b9565b508181600801908161378191906149b9565b50338160090160006101000a81548173ffffffffffffffffffffffffffffffffffffffff021916908373ffffffffffffffffffffffffffffffffffffffff1602179055504281600a01819055506001339080600181540180825580915050600190039060005260206000200160009091909190916101000a81548173ffffffffffffffffffffffffffffffffffffffff021916908373ffffffffffffffffffffffffffffffffffffffff1602179055506001600860003373ffffffffffffffffffffffffffffffffffffffff1673ffffffffffffffffffffffffffffffffffffffff16815260200190815260200160002060006101000a81548160ff0219169083151502179055506001600760003373ffffffffffffffffffffffffffffffffffffffff1673ffffffffffffffffffffffffffffffffffffffff16815260200190815260200160002060003373ffffffffffffffffffffffffffffffffffffffff1673ffffffffffffffffffffffffffffffffffffffff16815260200190815260200160002060006101000a81548160ff021916908315150217905550600b600081548092919061393190614aba565b919050555050505050505050505050565b6003818154811061395257600080fd5b906000526020600020016000915054906101000a900473ffffffffffffffffffffffffffffffffffffffff1681565b6000600a60008373ffffffffffffffffffffffffffffffffffffffff1673ffffffffffffffffffffffffffffffffffffffff168152602001908152602001600020549050919050565b600d5481565b6000604051905090565b600080fd5b600080fd5b600073ffffffffffffffffffffffffffffffffffffffff82169050919050565b6000613a0f826139e4565b9050919050565b613a1f81613a04565b8114613a2a57600080fd5b50565b600081359050613a3c81613a16565b92915050565b600060208284031215613a5857613a576139da565b5b6000613a6684828501613a2d565b91505092915050565b60008115159050919050565b613a8481613a6f565b82525050565b6000602082019050613a9f6000830184613a7b565b92915050565b600081519050919050565b600082825260208201905092915050565b60005b83811015613adf578082015181840152602081019050613ac4565b60008484015250505050565b6000601f19601f8301169050919050565b6000613b0782613aa5565b613b118185613ab0565b9350613b21818560208601613ac1565b613b2a81613aeb565b840191505092915050565b613b3e81613a04565b82525050565b6000819050919050565b613b5781613b44565b82525050565b6000610160820190508181036000830152613b78818e613afc565b90508181036020830152613b8c818d613afc565b90508181036040830152613ba0818c613afc565b90508181036060830152613bb4818b613afc565b90508181036080830152613bc8818a613afc565b905081810360a0830152613bdc8189613afc565b905081810360c0830152613bf08188613afc565b905081810360e0830152613c048187613afc565b9050818103610100830152613c198186613afc565b9050613c29610120830185613b35565b613c37610140830184613b4e565b9c9b505050505050505050505050565b613c5081613b44565b8114613c5b57600080fd5b50565b600081359050613c6d81613c47565b92915050565b600060208284031215613c8957613c886139da565b5b6000613c9784828501613c5e565b91505092915050565b6000602082019050613cb56000830184613b35565b92915050565b600081519050919050565b600082825260208201905092915050565b6000819050602082019050919050565b613cf081613a04565b82525050565b6000613d028383613ce7565b60208301905092915050565b6000602082019050919050565b6000613d2682613cbb565b613d308185613cc6565b9350613d3b83613cd7565b8060005b83811015613d6c578151613d538882613cf6565b9750613d5e83613d0e565b925050600181019050613d3f565b5085935050505092915050565b60006020820190508181036000830152613d938184613d1b565b905092915050565b600080fd5b600080fd5b7f4e487b7100000000000000000000000000000000000000000000000000000000600052604160045260246000fd5b613ddd82613aeb565b810181811067ffffffffffffffff82111715613dfc57613dfb613da5565b5b80604052505050565b6000613e0f6139d0565b9050613e1b8282613dd4565b919050565b600067ffffffffffffffff821115613e3b57613e3a613da5565b5b613e4482613aeb565b9050602081019050919050565b82818337600083830152505050565b6000613e73613e6e84613e20565b613e05565b905082815260208101848484011115613e8f57613e8e613da0565b5b613e9a848285613e51565b509392505050565b600082601f830112613eb757613eb6613d9b565b5b8135613ec7848260208601613e60565b91505092915050565b600080600080600080600060e0888a031215613eef57613eee6139da565b5b6000613efd8a828b01613a2d565b975050602088013567ffffffffffffffff811115613f1e57613f1d6139df565b5b613f2a8a828b01613ea2565b965050604088013567ffffffffffffffff811115613f4b57613f4a6139df565b5b613f578a828b01613ea2565b955050606088013567ffffffffffffffff811115613f7857613f776139df565b5b613f848a828b01613ea2565b945050608088013567ffffffffffffffff811115613fa557613fa46139df565b5b613fb18a828b01613ea2565b93505060a088013567ffffffffffffffff811115613fd257613fd16139df565b5b613fde8a828b01613ea2565b92505060c088013567ffffffffffffffff811115613fff57613ffe6139df565b5b61400b8a828b01613ea2565b91505092959891949750929550565b600060208201905061402f6000830184613b4e565b92915050565b6000608082019050818103600083015261404f8187613afc565b905081810360208301526140638186613afc565b905081810360408301526140778185613afc565b9050818103606083015261408b8184613afc565b905095945050505050565b600060c08201905081810360008301526140b08189613afc565b905081810360208301526140c48188613afc565b905081810360408301526140d88187613afc565b905081810360608301526140ec8186613afc565b905081810360808301526141008185613afc565b905081810360a08301526141148184613afc565b9050979650505050505050565b60008060008060008060008060006101208a8c031215614144576141436139da565b5b60008a013567ffffffffffffffff811115614162576141616139df565b5b61416e8c828d01613ea2565b99505060208a013567ffffffffffffffff81111561418f5761418e6139df565b5b61419b8c828d01613ea2565b98505060408a013567ffffffffffffffff8111156141bc576141bb6139df565b5b6141c88c828d01613ea2565b97505060608a013567ffffffffffffffff8111156141e9576141e86139df565b5b6141f58c828d01613ea2565b96505060808a013567ffffffffffffffff811115614216576142156139df565b5b6142228c828d01613ea2565b95505060a08a013567ffffffffffffffff811115614243576142426139df565b5b61424f8c828d01613ea2565b94505060c08a013567ffffffffffffffff8111156142705761426f6139df565b5b61427c8c828d01613ea2565b93505060e08a013567ffffffffffffffff81111561429d5761429c6139df565b5b6142a98c828d01613ea2565b9250506101008a013567ffffffffffffffff8111156142cb576142ca6139df565b5b6142d78c828d01613ea2565b9150509295985092959850929598565b6000610120820190506142fd600083018c613b35565b61430a602083018b613b35565b818103604083015261431c818a613afc565b905081810360608301526143308189613afc565b905081810360808301526143448188613afc565b905081810360a08301526143588187613afc565b905081810360c083015261436c8186613afc565b905081810360e08301526143808185613afc565b9050614390610100830184613b4e565b9a9950505050505050505050565b600080600080600080600080610100898b0312156143bf576143be6139da565b5b600089013567ffffffffffffffff8111156143dd576143dc6139df565b5b6143e98b828c01613ea2565b985050602089013567ffffffffffffffff81111561440a576144096139df565b5b6144168b828c01613ea2565b975050604089013567ffffffffffffffff811115614437576144366139df565b5b6144438b828c01613ea2565b965050606089013567ffffffffffffffff811115614464576144636139df565b5b6144708b828c01613ea2565b955050608089013567ffffffffffffffff811115614491576144906139df565b5b61449d8b828c01613ea2565b94505060a089013567ffffffffffffffff8111156144be576144bd6139df565b5b6144ca8b828c01613ea2565b93505060c089013567ffffffffffffffff8111156144eb576144ea6139df565b5b6144f78b828c01613ea2565b92505060e089013567ffffffffffffffff811115614518576145176139df565b5b6145248b828c01613ea2565b9150509295985092959890939650565b60006101008201905061454a600083018b613b35565b818103602083015261455c818a613afc565b905081810360408301526145708189613afc565b905081810360608301526145848188613afc565b905081810360808301526145988187613afc565b905081810360a08301526145ac8186613afc565b905081810360c08301526145c08185613afc565b905081810360e08301526145d48184613afc565b90509998505050505050505050565b600080604083850312156145fa576145f96139da565b5b600061460885828601613a2d565b925050602061461985828601613a2d565b9150509250929050565b600061014082019050818103600083015261463e818d613afc565b90508181036020830152614652818c613afc565b90508181036040830152614666818b613afc565b9050818103606083015261467a818a613afc565b9050818103608083015261468e8189613afc565b905081810360a08301526146a28188613afc565b905081810360c08301526146b68187613afc565b905081810360e08301526146ca8186613afc565b90506146da610100830185613b35565b6146e8610120830184613b4e565b9b9a5050505050505050505050565b6000610100820190508181036000830152614712818b613afc565b90508181036020830152614726818a613afc565b9050818103604083015261473a8189613afc565b9050818103606083015261474e8188613afc565b905081810360808301526147628187613afc565b905081810360a08301526147768186613afc565b905081810360c083015261478a8185613afc565b905081810360e083015261479e8184613afc565b90509998505050505050505050565b7f4e487b7100000000000000000000000000000000000000000000000000000000600052602260045260246000fd5b600060028204905060018216806147f457607f821691505b602082108103614807576148066147ad565b5b50919050565b60008190508160005260206000209050919050565b60006020601f8301049050919050565b600082821b905092915050565b60006008830261486f7fffffffffffffffffffffffffffffffffffffffffffffffffffffffffffffffff82614832565b6148798683614832565b95508019841693508086168417925050509392505050565b6000819050919050565b60006148b66148b16148ac84613b44565b614891565b613b44565b9050919050565b6000819050919050565b6148d08361489b565b6148e46148dc826148bd565b84845461483f565b825550505050565b600090565b6148f96148ec565b6149048184846148c7565b505050565b5b818110156149285761491d6000826148f1565b60018101905061490a565b5050565b601f82111561496d5761493e8161480d565b61494784614822565b81016020851015614956578190505b61496a61496285614822565b830182614909565b50505b505050565b600082821c905092915050565b600061499060001984600802614972565b1980831691505092915050565b60006149a9838361497f565b9150826002028217905092915050565b6149c282613aa5565b67ffffffffffffffff8111156149db576149da613da5565b5b6149e582546147dc565b6149f082828561492c565b600060209050601f831160018114614a235760008415614a11578287015190505b614a1b858261499d565b865550614a83565b601f198416614a318661480d565b60005b82811015614a5957848901518255600182019150602085019450602081019050614a34565b86831015614a765784890151614a72601f89168261497f565b8355505b6001600288020188555050505b505050505050565b7f4e487b7100000000000000000000000000000000000000000000000000000000600052601160045260246000fd5b6000614ac582613b44565b91507fffffffffffffffffffffffffffffffffffffffffffffffffffffffffffffffff8203614af757614af6614a8b565b5b60018201905091905056fea26469706673582212208f37ca6efe89659416f29fa2ed08959a7e4e96d42cc291ba9b739838f953e30b64736f6c63430008130033",
    "linkReferences": {},
    "deployedLinkReferences": {}
}